:020000040800F2
:10000000280500209D010008EF160008E3150008F0
:10001000ED160008A90200083D1C000800000000C1
:10002000000000000000000000000000F3160008BF
:10003000E903000800000000F1160008F5160008AA
:10004000B7010008B7010008B7010008B7010008B0
:10005000B7010008B7010008B7010008B7010008A0
:10006000B7010008B7010008B7010008B701000890
:10007000B7010008B7010008B7010008B701000880
:10008000B7010008B7010008B7010008B701000870
:10009000B7010008B7010008B7010008B701000860
:1000A000B7010008B7010008B7010008B701000850
:1000B000B7010008B7010008B7010008B701000840
:1000C000B7010008B7010008B7010008B701000830
:1000D000B7010008251C0008B7010008B701000897
:1000E000B7010008B7010008B7010008B701000810
:1000F000B7010008B7010008B7010008B701000800
:10010000B7010008B7010008B7010008B7010008EF
:10011000B7010008B7010008B7010008B7010008DF
:10012000B7010008B70100082D030008B701000857
:10013000B7010008B7010008B7010008B7010008BF
:10014000B7010008B7010008B7010008B7010008AF
:10015000B7010008B701000839030008B70100081B
:10016000B7010008B7010008B7010008B70100088F
:10017000B7010008B7010008B7010008000000003F
:10018000B7010008B7010008DFF80CD000F07AF8DA
:10019000004800478D1D00082805002006488047BC
:1001A00006480047FEE7FEE7FEE7FEE7FEE7FEE75C
:1001B000FEE7FEE7FEE7FEE78D170008890100086D
:1001C0002DE9F05F0546002092469B46884606468C
:1001D000814640241BE0284641464746224600F01F
:1001E00041F853465A46C01A914110D31146184659
:1001F000224600F028F82D1A67EB01084F462246E8
:100200000120002100F01FF817EB00094E41201ECD
:10021000A4F10104DFDC484631462A464346BDE8E6
:10022000F09FD2B201E000F8012B491EFBD27047CB
:100230000022F6E710B513460A4604461946FFF7B2
:10024000F0FF204610BD202A04DB203A00FA02F11C
:10025000002070479140C2F1200320FA03F31943B4
:1002600090407047202A04DB203A21FA02F0002156
:10027000704721FA02F3D040C2F1200291400843B6
:1002800019467047064C074D06E0E06840F0010350
:1002900094E8070098471034AC42F6D3FFF778FF94
:1002A000741E0008941E0008FEE70000104810B5F8
:1002B0000178232904D081783B2901D00DA00DE0DD
:1002C00040784FF480613038C2B20F48012A09D01B
:1002D000002A0CD1012200F06EFB0CA0BDE81040FA
:1002E00001F0AEBC002200F066FB0CA0F6E710BDEA
:1002F00004000020556E6C617766756C204F726447
:100300006572730D0A000000001402404752454513
:100310004E5F4C4544204F46460D0A004752454526
:100320004E5F4C4544204F4E0D0A0000014800F03E
:10033000B9B8000064000020014800F0B3B8000024
:10034000C400002001681823CAB2103AB2FBF3F2CD
:10035000054B6FF30901032A9B5CC36500D9091D96
:100360008165084670470000541E000810B501461C
:1003700000208B698A6A4FF0C07453B1B3F5005FF7
:1003800015D072B1012A0CD0022A0AD0032A09D151
:1003900004E01AB1012A06D0022A03D1C96AC901B0
:1003A00000D5012010BDC96AA142FAD010BD002AB3
:1003B000F7D0012AF2D0022AF3D0032AF3D010BDDD
:1003C00030B50468256825F48025256004686360DD
:1003D0008368402B036803D099600068C26030BD19
:1003E0009A600068C16030BD704772B6FEE72DE9C3
:1003F000F0410446876D00F0E3FA064694F83500B4
:100400000025022806D08020606584F83450012041
:10041000BDE8F0812068016821F0160101602068C4
:10042000416921F080014161206C08B9A06C20B1C4
:100430002068016821F0080101602068016821F04E
:10044000010101600CE000F0BBFA801B052807D910
:1004500020206065032084F8350084F83450D7E705
:1004600020680068C007EED194F85C103F208840F7
:10047000B860012084F8350084F834500020C7E7C4
:1004800090F83510022903D0802141650120704782
:10049000052180F835100068016821F00101016034
:1004A000002070472DE9F84304464FF00009CDF8CD
:1004B000009063484FF41651A56D0068B0FBF1F74A
:1004C0002E6894F85C10082000FA01F131420FD038
:1004D00021680A6852070BD50A6822F004020A60F4
:1004E00094F85C108840A860606D40F00100606581
:1004F00094F85C104FF0010808FA01F0304208D07F
:1005000021684969090604D5A860606D40F00200C1
:10051000606594F85C1004208840304208D021685F
:100520000968890704D5A860606D40F00400606523
:1005300094F85C1010208840304218D02168096877
:10054000090714D5A86020680168490304D500682C
:10055000000308D5A16C07E00168C90503D4016850
:1005600021F008010160216C09B12046884794F808
:100570005C1020208840304231D021680968C906CB
:100580002DD5A86094F8350005282068016806D0AC
:10059000490347D5006800031DD4616C1CE021F0BD
:1005A000160101602068416921F080014161206CE1
:1005B00008B9A06C20B12068016821F00801016031
:1005C00094F85C103F208840A86084F8358084F857
:1005D0003490216D1FE0E16B09B120468847606DC2
:1005E00000282BD0606DC00714D0052084F835009A
:1005F0002068016821F0010101600098401C009012
:10060000B84203D820680068C007F6D184F8358066
:1006100084F83490E16C002910D001B02046BDE888
:10062000F04308470168C905D5D4016821F01001DD
:10063000016084F8358084F83490CCE7BDE8F88315
:10064000140000202DE9F041044600F0B9F90646F7
:100650005CB1022084F83500002584F8345020680D
:10066000016821F0010101600DE00120BDE8F08189
:1006700000F0A6F9801B052805D92020606503201D
:1006800084F83500F2E720680068C007F0D12268DE
:10069000116820480140D4E901031843D4E9033626
:1006A0003343184363691843A3691843E369184344
:1006B000236A18430843616A042903D1D4E90B1360
:1006C00019430843106020684069666A20F00701FA
:1006D00030460E43012704280CD1A06A0643E06A85
:1006E00040B12046FFF742FE20B14020606584F80B
:1006F0003570BAE7206846612046FFF723FE94F87C
:100700005C203F2191408160656584F83570002050
:10071000ACE700003F8010F02DE9F0410446866D03
:1007200090F83400002501280DD0012084F8340011
:1007300094F835700020012F07D084F8340002258A
:100740002846BDE8F0810220FBE7022784F83570D7
:1007500060652046FFF734FE94F85C103F20884027
:10076000B0602068016841F016010160206C20B182
:100770002068016841F0080101602068016841F0CB
:1007800001010160DCE7000070B5044600F018F9D3
:100790000546601C02D004480078044400F010F9BB
:1007A000401BA042FAD370BD080000202DE9F84F8D
:1007B000DFF8BCA10022012503264FF00F090AF142
:1007C000040BAAF1040E00BF0B6805FA02F42340E3
:1007D000A34270D10F7907F00307012F01D0022F38
:1007E00016D187684FEA420806FA08FC27EA0C0788
:1007F000D1F80CC00CFA08FC4CEA070CC0F808C091
:100800004768A7430C79C4F3001494403C43446008
:100810000C79E443A4070AD0C4684FEA420C06FAF4
:100820000CF7BC438F6807FA0CF72743C7600C79B5
:1008300004F00304022C12D1D40800EB840CDCF881
:1008400020405707FF0E09FA07F824EA0804D1F8F8
:10085000108008FA07F848EA0408CCF820800468F9
:100860004FEA420C06FA0CF7BC430F7907F0030776
:1008700007FA0CF7274307604C6814F4403F70D028
:100880003C4C276847F480472760246822F0030720
:1008900004F480440094384C07EB040CDCF808485E
:1008A00097074FEA177809FA08F7BC43334FB84265
:1008B00002D1002724E054E0314FB84201D1012792
:1008C0001EE0304FB84201D1022719E02E4FB84246
:1008D00001D1032714E02D4FB84201D104270FE0C6
:1008E0002B4FB84201D105270AE02A4FB84201D167
:1008F000062705E0284FB84201D1072700E0082766
:1009000007FA08F72743CCF80878DAF8004057468A
:10091000D1F804C09C435FEACC2C00D51C433C605A
:10092000DBF800405F46D1F804C09C435FEA8C2CA2
:1009300000D51C433C60DEF800407746D1F804C087
:100940009C435FEA8C3C00D51C433C60084F083F49
:100950003C68D1F804C09C435FEACC3C00D51C4302
:100960003C60521C102AFFF42FAFBDE8F88F000046
:10097000083C014044380240003001400000024081
:100980000004024000080240000C02400010024037
:100990000014024000180240001C02400069084098
:1009A00000D001207047426921EA02030A4043EA6D
:1009B0000241816170470AB1816170470904FBE718
:1009C00001488068704700000800002002488168E4
:1009D0000278114481607047080000200B4810B570
:1009E000016841F400710160016841F480610160B7
:1009F000016841F480710160032000F06FF800206D
:100A000000F006F800F024F8002010BD003C024081
:100A100070B50D4D04464FF47A712878B1FBF0F0B3
:100A20000A490968B1FBF0F000F00AFB48B9102C44
:100A300007D200222146501E00F030F800206C60E2
:100A400070BD012070BD00000800002014000020CF
:100A50000A4808B5016841F480410160006800F46B
:100A6000804000900548001F016841F080510160FE
:100A7000006800F08050009008BD0000443802403B
:100A8000002809DB00F01F0201219140400980008D
:100A900000F1E020C0F8001170470000F0B40E4BE8
:100AA0001B680C46C3F30223C3F10705042D00D9CC
:100AB0000425191D072901D2002300E0DB1E0126B1
:100AC00006FA05F1491E214099409E40761E1640C7
:100AD0003143F0BC01F0C4B80CED00E0064900F071
:100AE000070208684FF6FF03184040EA0220034A55
:100AF00010430860704700000CED00E00000FA05AC
:100B00002DE9F0470E46050065D0DFF81481D8F8CE
:100B10000000F7B200F00700B04207D288F800707A
:100B2000D8F8000000F00700B04254D128683D4CCE
:100B3000810712D5400703D5206840F4E0502060BB
:100B40002878000703D5206840F4604020602068C2
:100B5000A96820F0F000084320602878C0072DD055
:100B6000304968680839012812D0022813D00328B8
:100B700011D00968890700292DDA216821F00301C5
:100B800001432160FFF71CFF814641F2883A0EE0E5
:100B900009688903EFE709688901ECE7FFF710FFAF
:100BA000A0EB0901514502D90320BDE8F087206878
:100BB000696800F00C00B0EB810FEFD1D8F800109D
:100BC000404601F00701B14207D90770006800F004
:100BD0000700B04201D00120E7E72878400705D59B
:100BE0002068E96820F4E050084320602878000776
:100BF00006D52068296920F4604040EAC1002060E1
:100C000000F038F82168084AC1F30311515CC8406C
:100C10000649086006480068FFF7FAFE0020C4E7AE
:100C2000003C0240083802405C1E0008140000200E
:100C30000C0000200448054900680968044AC1F313
:100C40008221515CC84070471400002008380240DF
:100C50006C1E00080448054900680968044AC1F38D
:100C60004231515CC84070471400002008380240EF
:100C70006C1E0008154810B5006810F00C021448EE
:100C800013D04110042A0FD0082A0ED10F4C241F74
:100C90002268236802F03F025B0207D52068C0F398
:100CA0008810A0FB010106E0084610BD2168C1F3D1
:100CB0008811A1FB00010023FFF782FA2168C1F32C
:100CC0000141491C4900B0FBF1F010BD0838024059
:100CD0000024F4002DE9F84F04006ED02078DFF8EE
:100CE0004C93C007A9F104054AD009F1040001683A
:100CF000C1F38101012908D00068C0F381000228F6
:100D00000AD1D9F80000400206D52868800337D5FB
:100D100060680028E1D033E06068B0F5803F10D013
:100D2000B0F5A02F286810D020F480302860286803
:100D300020F4802028606068A8B1FFF741FE0646D5
:100D40000DE0286840F48030F4E740F4802028600B
:100D5000F7E700BFFFF734FE801B642873D82868CC
:100D60008003F7D50CE0FFF72BFE064605E000BF39
:100D7000FFF726FE801B6428F0D828688003F7D48C
:100D80002078DFF8AC8280074FF0000A3ED5A748F4
:100D9000001D016811F00C0F08D00068C0F381003D
:100DA00002280BD1D9F80000400207D42868800738
:100DB00016D5E068012800D112E033E1E068B8B14F
:100DC0000120C8F80000FFF7FBFD064605E000BF64
:100DD000FFF7F6FD801B0228C0D828688007F7D5EA
:100DE0002868216920F0F80040EAC10028600DE081
:100DF000C8F800A0FFF7E4FD064604E0FFF7E0FDB9
:100E0000801B02281FD828688007F7D420780007A5
:100E100022D5864F87486169703771B10121016021
:100E2000FFF7CEFD064604E0FFF7CAFD801B02284F
:100E300009D838688007F7D50EE0C0F800A0FFF7A2
:100E4000BFFD064605E082E0FFF7BAFD801B0228E1
:100E50007DD838688007F7D42078400768D5DFF858
:100E6000CCB100270BF13C0BDBF80000C0000BD429
:100E7000DBF8001041F08051CBF80010DBF80000E7
:100E8000012700F0805000906B4E3068C00510D4F0
:100E9000306840F480703060FFF792FD009005E00C
:100EA000FFF78EFD0099401A022850D83068C0051F
:100EB000F6D55E4EA0686C3601280FD00528306844
:100EC00010D020F001003060306820F00400306065
:100ED000A068B8B1FFF774FD00900FE0306840F0F3
:100EE0000100F4E740F004003060F7E7FFF768FD29
:100EF0000099411A41F28830814266D830688007F3
:100F0000F4D50EE0FFF75CFD009007E0FFF758FD19
:100F10000099411A41F28830814256D830688007E2
:100F2000F4D42FB1DBF8001021F08051CBF8001081
:100F3000A069C8B33D49091D0968C1F381010229AF
:100F40004AD00228504607D0C8F8600000E03CE0D4
:100F5000FFF736FD04463BE04746C8F86000FFF760
:100F60002FFD064605E000BFFFF72AFD801B022883
:100F70002BD828688001F7D4D4E907010843A16A77
:100F80002E4A490802EB0141626A41EA8211084394
:100F900094F82C1040EA0161C9F80010012038666D
:100FA000FFF70EFD044606E03EE000BFFFF708FD38
:100FB000001B022809D828688001F7D534E000BF5B
:100FC000FFF7FEFC001B022802D90320BDE8F88FC2
:100FD00028688001F4D427E00128F7D0D9F8000070
:100FE000E26900F4800191421CD1226A00F03F01C5
:100FF000914217D147F6C071626A0140B1EB821F7E
:1010000010D1A26A4FF0FF3300F4403103EB5202DB
:10101000B1EB024F06D194F82C1000F07060B0EBE9
:10102000016F01D00120D1E70020CFE70438024052
:1010300000004742800E4742007000400000FFFF62
:1010400010B5401EB0F1807F01D3012010BD4FF0DC
:10105000E02460610F21601700F002FE0020A06113
:1010600007202061002010BD70477047F8B5016867
:1010700004460868CA684B6910F00F0F4FF000056E
:101080005AD003F0010602F49077374365D0C107C8
:1010900005D0D10503D5616C41F0010161644107C0
:1010A00005D5D90703D0616C41F002016164810765
:1010B00005D5D90703D0616C41F0040161640107D3
:1010C00007D502F02001314303D0616C41F00801E3
:1010D0006164616C00293BD0800604D5900602D57E
:1010E000204600F035FC20684069616CC0F3801038
:1010F00001F00801014320462BD000F0F4FB2068EA
:101100004069400621D52068143050E8001F21F0C6
:10111000400140E80012002AF5D1E06BA8B16E4909
:101120000165E06BFFF7ACF9002811D0E06B016DB1
:1011300001B0BDE8F040084783060ED593060CD5F4
:101140002046BDE8F84000F003BC2046FFF78DFFC5
:10115000F8BDFFF78AFF6564F8BD266B2023012EDA
:101160007DD1C6067BD5D60679D50868486800903B
:1011700048694FF00206400641D5E16B08684068B7
:101180000004000CE8D0A28D8242E5D9E085C86950
:10119000B0F5807F2DD020680C3050E8001F21F47E
:1011A000807140E80012002AF5D12168143151E81D
:1011B000000F20F0010041E80002002AF5D120686C
:1011C000143050E8001F21F0400140E80012002ACE
:1011D000F5D184F84230256320680C3050E8001FB8
:1011E00021F0100140E80012002AF5D1E06BFFF772
:1011F000FEF86663A08DE18D401A81B22AE0A08DD1
:10120000E18D401A81B2E08D0028A5D00029A3D03D
:1012100022680C3252E8000F20F4907042E8000778
:10122000002FF5D12068143050E8002F22F0010281
:1012300040E80027002FF5D184F84230256320686C
:101240000C3050E8002F22F0100240E80023002B61
:10125000F5D166632046FFF707FFF8BDFFE70506F7
:101260002BD5150629D594F841002128F5D1A06881
:10127000B0F5805F01D12069B0B1206A411C2162C4
:10128000216800784860E08C401E0004000CE08477
:10129000E3D12068C16821F08001C1602068C16885
:1012A00041F04001C160D8E7206A0088C0F308001F
:1012B0004860206A801C2062E5E74006CDD55006D4
:1012C000CBD5CA68204622F04002CA6084F841307B
:1012D00000F064F9C1E700009D17000870B5040034
:1012E00004D094F84100002510B106E0012070BD43
:1012F00084F84050204600F023F8242084F8410070
:101300002068C16821F40051C160204600F082FBD2
:101310002068016921F4904101612068416921F050
:101320002A0141612068C16841F40051C1606564CF
:10133000202084F8410084F842006563002070BDDD
:101340002DE9F04186B0064614216846FEF770FF8D
:101350003149306888425BD130480024016841F04F
:1013600010010160006800F0100005902B4814384F
:10137000016841F0010101600068694600F0010068
:1013800005904FF4C06000900220CDE901040320D5
:101390000390072004902248FFF708FA224D2148C5
:1013A0004FF000672860C5E901744FF48068C5E913
:1013B000034880156C61C5E906400002C5E90804D0
:1013C0002846FFF73FF908B1FFF70FF8F563AE6362
:1013D000154D144860357830E5E802074020A5E84F
:1013E0001101114845F814496030AC61EC612C6280
:1013F0006C62FFF727F908B1FEF7F7FFB56300222B
:1014000001212520AE63FFF749FB2520FFF738FBBC
:1014100006B0BDE8F08100000010014044380240F1
:1014200000000240406402406400002090F8423016
:10143000202B01D00220704721B11AB10023036391
:1014400000F06EBB0120704710B50B4A0168914255
:1014500010D10A4A0121531C11700021121D5C5C3D
:101460005454491C89B20329F9D30068C16841F07A
:101470001001C16010BD00000010014000000020FC
:1014800070472DE9F843044690F841009846164607
:101490000D46202802D00220BDE8F88385B17EB138
:1014A00000206064212084F84100FFF789FAA684B7
:1014B0008146E684A0682027B0F5805F02D003E073
:1014C0000120E9E7206910B12E4600250EE0002634
:1014D0000CE08021204600F06BFBA8B9C6B116F8DD
:1014E000010B21684860E08C401EE084E08C4B4694
:1014F0004FF00002CDF800800028EAD14FF0400103
:10150000204600F055FB40B184F841700320C3E74A
:1015100035F8020BC0F30800E3E784F841700020BF
:10152000BAE7000070B5044690F84100202801D0C9
:10153000022070BD49B342B32162A284E28400203C
:101540006064212384F84130A56B114BEB63A56BDC
:10155000104B2B64A56B104BEB64A36B18652568CF
:1015600013462A1DA06BFFF7D7F821686FF04000E3
:1015700008602068143050E8001F41F0800140E806
:101580000012002AF5D1002070BD012070BD0000BE
:101590009B180008DD180008AD17000810B505A05D
:1015A00000F04EFBBDE810404FF400710B48FFF710
:1015B000FAB90000496E746F2048414C5F554152A2
:1015C000545F547843706C7443616C6C6261636BFC
:1015D0002046756E6374696F6E0D0A000014024038
:1015E0007047FEE70D4808B5016841F480010160CD
:1015F0000068002200F48000009001213A20FFF7EB
:101600004DFA3A20FFF73CFA002201214620FFF76D
:1016100045FABDE808404620FFF732BA30380240AC
:1016200070B586B014216846FEF702FE1E480024FD
:10163000016841F004010160016801F004010591B5
:10164000016841F020010160016801F0200105916D
:10165000016841F080010160016801F0800105919D
:10166000016841F0010101600068104E00F00100C6
:101670004FF4C0650590012229463046FFF79BF9DB
:1016800000950125CDE90154694630460394FFF7E2
:101690008DF802200095CDE9014069460448FFF726
:1016A00085F806B070BD00003038024000140240DA
:1016B000000002400C4810B50A4901604FF4E131C6
:1016C0004160002181600C22C160C0E90412816187
:1016D000C161FFF703FE002803D0BDE81040FEF70C
:1016E00084BE10BD001001401C000020FEE7FEE794
:1016F00070477047FFF76AB930B593B0302168463C
:10170000FEF796FD14210CA8FEF792FD1D4800255A
:10171000016841F080510160006800F08050119034
:101720001948016841F4804101600068022400F416
:101730008040119001200090000401908001CDE9CB
:10174000064008AA0420A82182E813000B906846EE
:10175000FFF7C0FA08B172B6FEE70CA90F2081E8C6
:1017600031004FF4A0500F904FF48050109005219D
:101770000CA8FFF7C5F9002801D072B6FEE713B038
:1017800030BD00004038024000700040024801684F
:1017900041F470010160704788ED00E010B5806B86
:1017A0000021C185C184FFF760FC10BD70B5846B5A
:1017B0002068406994F84110C0F3C0100025212929
:1017C00004D118B1E584204600F0B4F820684069DF
:1017D00094F84210C0F38010222904D118B1E58595
:1017E000204600F080F8606C40F0100060642046F5
:1017F000FFF73BFC70BD10B50146806B09680968B6
:101800004FF00002C9052ED4C28501680C3151E8A1
:10181000003F23F4807341E80034002CF5D10168C7
:10182000143151E8003F23F0010341E80034002C5B
:10183000F5D10168143151E8003F23F0400341E83D
:101840000034002CF5D1202180F84210016B0129D1
:1018500009D101680C3151E8003F23F0100341E841
:101860000034002CF5D14263016B012902D0FFF74F
:10187000EBFD10BD818DFFF7F7FB10BD10B5806B40
:1018800001214163016B012902D0FFF7F9FD10BD71
:10189000818D4908FFF7E8FB10BD10B50146806B4C
:1018A00009680968C90516D40021C184016814318A
:1018B00051E8002F22F0800241E80023002BF5D1EF
:1018C00001680C3151E8002F42F0400241E800234A
:1018D000002BF5D110BDFFF761FE10BD10B5806B78
:1018E000FFF77EFE10BD01680C3151E8002F22F495
:1018F000907241E80023002BF5D10168143151E8C2
:10190000002F22F0010241E80023002BF5D1016BEA
:10191000012909D101680C3151E8002F22F0100291
:1019200041E80023002BF5D1202180F8421000214E
:101930000163704701680C3151E8002F22F0C002AA
:1019400041E80023002BF5D1202180F84110704799
:1019500008B590F84210222901D0022008BD826803
:101960004FF480539A4201D1016921B1816A9A42B0
:101970001BD04AB10AE00268816A5268C2F30802C9
:101980000A80816A891C08E0026972B102685268A3
:1019900002F07F020A70816A491C8162C18D491E72
:1019A0000904090CC18503D01BE002685268F1E705
:1019B0000168CA6822F02002CA600168CA6822F47D
:1019C0008072CA6001684A6922F001024A612021DE
:1019D00080F8421000214163026B012A03D0FFF717
:1019E00033FD002008BD016301680C3151E8002F70
:1019F00022F0100241E80023002BF5D101680A68AB
:101A0000D20602D50A6849680091818DFFF72CFB48
:101A1000E7E7000070B5044600680169E26821F458
:101A20004051114301612169A068E269084361697D
:101A3000114308432168CA6849F20C639A43024380
:101A4000CA6020684169A26921F440711143416173
:101A500031492068884202D03049884202D1FFF7DC
:101A6000F9F801E0FFF7E6F8E2690023192164259F
:101A70003226B2F5004F626828D0A0FB0101930F17
:101A80009200FEF79DFB0146B0FBF5F06FF01802E7
:101A9000504301EB800006EB0010B0FBF5F000F0C6
:101AA000F002B1FBF5F002EB0012B1FBF5F06FF0C4
:101AB0001803584301EB800006EB0010B0FBF5F073
:101AC00000F00F0021681044886070BDA0FB010188
:101AD00092185B41FEF774FB0146B0FBF5F0020182
:101AE000B1FBF5F06FF01803584301EB800006EBF3
:101AF000C000B0FBF5F000F0F80002EB4002B1FBD3
:101B0000F5F0584301EB800006EBC000B0FBF5F0A8
:101B100000F00700D6E7000000100140001401406B
:101B200038B5816204468285002013466064222213
:101B300084F84220E56B1B4AEA63E56B1A4A2A6483
:101B4000E56B1A4AEA64E26B10650A462168E06BAD
:101B5000091DFEF7E1FD20680168406800902069DA
:101B600048B120680C3050E8001F41F4807140E813
:101B70000012002AF5D12068143050E8001F41F00F
:101B8000010140E80012002AF5D12068143050E825
:101B9000001F41F0400140E80012002AF5D100206A
:101BA00038BD0000F71700087D180008AD170008C1
:101BB0002DE9F843984617460D460446089E24E052
:101BC000701C22D0FEF7FCFEA0EB0800B0421AD831
:101BD000CEB12068C168490717D5802D15D0402D9A
:101BE00013D00168C94309070FD401680025406874
:101BF00000902046FFF777FE0820606484F840508C
:101C00000120BDE8F8830320FBE72068006835EA7F
:101C1000000004D00020B842D2D00020F1E701201B
:101C2000F9E7000010B50448FFF720FABDE81040BE
:101C3000014800F0E9B800001C000020FEE70000A9
:101C40000FB4054B10B503A9044A029800F027F819
:101C500010BC5DF814FB0000751D00081800002082
:101C60000907090E002804DB00F1E02080F80014C9
:101C7000704700F00F0000F1E02080F8141D70475D
:101C800002E008C8121F08C1002AFAD17047704745
:101C9000002001E001C1121F002AFBD170472DE98D
:101CA000F84F9946924688460546002706E02528C3
:101CB0000AD051464A4690476D1C7F1C2878002860
:101CC000F5D13846BDE8F88F002315F8011F1846F6
:101CD0002E2915D115F8011F04232A290DD06FF0E4
:101CE0002F022978A1F13004092C09D800EB8000DB
:101CF00002EB400008446D1CF3E758F8040B6D1C20
:101D00002A78002ADDD0632A07D0732A0FD0104624
:101D100051464A4690477F1C2AE018F8042B8DF85C
:101D2000002000218DF801106E46012103E058F8D3
:101D3000046B4FF0FF315A074FF0000401D409E063
:101D4000641C84420BDA8C42FADB325D002AF7D144
:101D500005E0641C8C42FCDB305D0028F9D127448F
:101D600004E016F8010B51464A469047641EF8D22B
:101D70006D1CA3E713B54FF0FF33012269460248FB
:101D8000FFF77FFB00981CBD1C000020FEF726FE1D
:101D9000FFF7B2FCFFF744FCFFF724FCFFF78AFCD7
:101DA000032210491048FFF741FB104C0121204647
:101DB000FEF7F4FD0128F9D13220FEF7E5FC012100
:101DC0002046FEF7EBFD0128F0D1142208A10648B9
:101DD000FFF7A8FB01212046FEF7E0FD0028F9D11E
:101DE000E4E70000010000201C0000200000024089
:101DF0004B657920574B5F55502050726573736562
:101E000064210D0A0000000038B50068C168C906E9
:101E100012D50168002541680091C16821F01001C8
:101E2000C160064C2078002806D0211D04A0FFF7D1
:101E300007FFFEF73BFA257038BD000000000020C8
:101E40005265636569766520434D4420697320259A
:101E5000730D0A00000610160006101600000000A0
:101E6000000000000102030406070809000000004A
:101E700001020304941E0008000000201C00000062
:101E8000801C0008B01E00081C0000200C0500008B
:101E9000901C00080023303B23313B000100000070
:101EA00010000000000000000024F400000000000A
:040000050800018965
:00000001FF
